:100000000C942A000C9447000C9447000C94470071
:100010000C9447000C9447000C9447000C94470044
:100020000C9447000C9447000C9447000C94470034
:100030000C9447000C9447000C9447000C94470024
:100040000C9447000C9447000C9447000C94470014
:100050000C94470011241FBECFE5D8E0DEBFCDBF12
:1000600010E0A0E6B0E0E4EAF2E102C005900D92F3
:10007000AC37B107D9F710E0ACE7B0E001C01D9292
:10008000AC37B107E1F70E9449000C9450090C9479
:100090000000CF93DF93CDB7DEB728970FB6F89463
:1000A000DEBF0FBECDBF0E94E8050E94030510E031
:1000B00000E08824222433240F2EF0E66F2EF0E097
:1000C0007F2EF02D0F2EFAE04F2E5524F02D37C045
:1000D0000E9430058F3FE1F3882EF82E0E943005F4
:1000E0008F3FE1F7013019F40E949A0600E08F2D4E
:1000F0000E944706812F992787FD9095E1E0F0E067
:10010000EC0FFD1FE80FF91F2F2D205320832DE248
:10011000F21681F4112369F4E1E0F0E0EC0FFD1F29
:100120008E0F9F1FFC0120830F2EF0E38F2EF02DEA
:1001300001C08F2C1F5F03C010E001E088243BE268
:10014000831669F08DE2881651F09AE2891639F02B
:10015000EFE28E1621F0FDE38F1609F0B9CF012FE3
:100160000150101674F5598140E07101015041F4BD
:100170005D3209F05EC1CC24DD24CE18DF0822C038
:10018000E02FFF27E7FDF09521E030E02C0F3D1F29
:10019000E20FF31F608170E0E42FFF27E7FDF09589
:1001A000EE0FFF1FE60DF71D80819181689F900182
:1001B000699F300D789F300D1124E20EF31E4F5FC2
:1001C000D5CF61013DE3831609F4A7C00E94300535
:1001D000182F8F3FD9F30E9430058F3FE1F7812F11
:1001E0000E944706E02FFF27E7FDF09581E090E0B1
:1001F0008C0F9D1FE80FF91F812F805380830F5FA5
:100200001D3321F7015010163CF540E071010150FB
:10021000E02FFF27E7FDF09521E030E02C0F3D1F98
:10022000E20FF31F608170E0842F992787FD90957E
:10023000880F991F860D971DFC0180819181689F11
:100240009001699F300D789F300D1124E20EF31E4E
:100250004F5F0023E1F601C07101FDE28F1601F14D
:10026000F81540F02AE2821649F13BE2831609F0C4
:1002700060C008C08FE28816A9F19DE3891609F0D5
:1002800058C04BC0EC0CFD1CB701882777FD80954A
:10029000982F0E941608862E972EA82EB92E4DC094
:1002A000CE18DF08B601882777FD8095982F0E9429
:1002B0001608862E972EA82EB92E3FC0CE9CC001C0
:1002C000CF9C900DDE9C900D1124FC01BF0188276E
:1002D00077FD8095982F0E941608862E972EA82EBF
:1002E000B92E2BC0B601882777FD8095982F0E94E4
:1002F00016084B015C01B701882777FD8095982F80
:100300000E9416089B01AC01C501B4010E947B0745
:10031000862E972EA82EB92E10C0B601882777FDFD
:100320008095982F0E941608862E972EA82EB92EFB
:1003300004C088249924AA24BB24C501B40100E088
:1003400010E020E030E0A90198010E94770788239F
:100350003CF48DE20E944706B7FAB094B7F8B09427
:10036000C501B4010E94E807DC01CB018C010E94A9
:10037000CA06B80180E090E00E9414089B01AC011D
:10038000C501B4010E941207F62EE72ED82EC92E01
:10039000862F9E2DAD2DBC2DBC01CD0100E010E0BF
:1003A00020E030E0A90198010E947707882309F432
:1003B000C3CE8F2D9E2DAD2DBC2DBC01CD0120E0D7
:1003C00030E44CE156E40E94C6080E94E3078B012A
:1003D0009C01FF246894F2F89101C801B2010E94C7
:1003E0003D09009781F02115310569F4B80188278E
:1003F00077FD8095982F0E941608862E972EA82E9E
:10040000B92E21E030E0C801B2010E943D098B0104
:10041000FA9419F78EE20E944706C501B4010E94C2
:10042000E807DC01CB010E94CA0610E001E0882445
:1004300086CEE02FFF27E7FDF09521E030E02C0F7E
:100440003D1FE20FF31F608170E0E42FFF27E7FDFF
:10045000F095EE0FFF1FE60DF71D80819181689FDB
:100460009001699F300D789F300D11246901CE0CE9
:10047000DF1CA8CE843409F471C0853448F482347A
:1004800099F1833408F04DC0813409F083C00FC066
:10049000823651F1833620F4813609F07BC007C0E3
:1004A000833609F43EC0843609F074C057C0413029
:1004B00069F42AB381E090E0AC0102C0440F551FFB
:1004C0006A95E2F7BA01622B6ABB08952AB381E00C
:1004D00090E0AC0102C0440F551F6A95E2F7BA01E3
:1004E000609562236ABB0895413069F427B381E0C7
:1004F00090E0AC0102C0440F551F6A95E2F7BA01C3
:10050000622B67BB089527B381E090E0AC0102C085
:10051000440F551F6A95E2F7BA016095622367BBE5
:100520000895413069F424B381E090E0AC0102C049
:10053000440F551F6A95E2F7BA01622B64BB089518
:1005400024B381E090E0AC0102C0440F551F6A95CE
:10055000E2F7BA016095622364BB0895413069F403
:1005600021B381E090E0AC0102C0440F551F6A95B1
:10057000E2F7BA01622B61BB089521B381E090E0FC
:10058000AC0102C0440F551F6A95E2F7BA016095AD
:10059000622361BB0895843409F471C0853448F442
:1005A000823499F1833408F04DC0813409F083C05E
:1005B0000FC0823651F1833620F4813609F07BC0BA
:1005C00007C0833609F43EC0843609F074C057C0B2
:1005D000413069F42BB381E090E0AC0102C0440FDC
:1005E000551F6A95E2F7BA01622B6BBB08952BB3D6
:1005F00081E090E0AC0102C0440F551F6A95E2F71C
:10060000BA01609562236BBB0895413069F428B349
:1006100081E090E0AC0102C0440F551F6A95E2F7FB
:10062000BA01622B68BB089528B381E090E0AC0169
:1006300002C0440F551F6A95E2F7BA016095622324
:1006400068BB0895413069F425B381E090E0AC01C6
:1006500002C0440F551F6A95E2F7BA01622B65BBD1
:10066000089525B381E090E0AC0102C0440F551F0E
:100670006A95E2F7BA016095622365BB089541303F
:1006800069F422B381E090E0AC0102C0440F551F31
:100690006A95E2F7BA01622B62BB089522B381E04A
:1006A00090E0AC0102C0440F551F6A95E2F7BA0111
:1006B0006095622362BB0895843409F43DC085349B
:1006C00040F48234F9F0833450F5813409F040C0AD
:1006D0000CC08236B9F0833618F48136C9F505C0EE
:1006E0008336E9F08436A1F527C02BB381E090E092
:1006F000AC0102C0440F551F6A95E2F7BA016227A8
:100700006BBB089528B381E090E0AC0102C0440FB8
:10071000551F6A95E2F7BA01622768BB089525B3B1
:1007200081E090E0AC0102C0440F551F6A95E2F7EA
:10073000BA01622765BB089522B381E090E0AC0165
:1007400002C0440F551F6A95E2F7BA01622762BBE7
:1007500008958434B1F1853438F48234E1F083347F
:1007600028F58134C1F50CC08236A9F0833618F41F
:10077000813689F505C08336C9F0843661F521C01C
:1007800029B330E0C90102C0959587956A95E2F7D3
:10079000982F917020C026B330E0C90102C0959512
:1007A00087956A95E2F7982F917015C023B330E0D2
:1007B000C90102C0959587956A95E2F7982F9170C7
:1007C0000AC020B330E0C90102C0959587956A95AB
:1007D000E2F7982F9170892F08958434D9F08534E9
:1007E00038F4823499F0833498F48134A1F40CC045
:1007F000823661F0833618F4813669F405C0833699
:1008000039F0843641F406C06ABB089567BB089589
:1008100064BB089561BB08958434D9F0853438F4FD
:10082000823499F0833498F48134A1F40CC0823678
:1008300061F0833618F4813669F405C0833639F0E7
:10084000843641F406C06BBB089568BB089565BB50
:10085000089562BB0895843409F1853438F48234F4
:10086000A9F08334B8F48134E1F40CC0823671F01D
:10087000833618F48136A9F405C0833659F08436DE
:1008800081F40CC08BB380958BBB089588B38095A1
:1008900088BB089585B3809585BB089582B3809504
:1008A00082BB08958434D9F0853438F4823499F0C9
:1008B000833498F48134A1F40CC0823661F083361D
:1008C00018F4813669F405C0833639F0843641F472
:1008D00006C099B305C096B303C093B301C090B3EB
:1008E000892F0895843409F471C0853448F4823422
:1008F00099F1833408F04DC0813409F083C00FC0F2
:10090000823651F1833620F4813609F07BC007C06E
:10091000833609F43EC0843609F074C057C04130B4
:1009200069F42BB381E090E0AC0102C0440F551F85
:100930006A95E2F7BA01622B6BBB08952BB381E095
:1009400090E0AC0102C0440F551F6A95E2F7BA016E
:10095000609562236BBB0895413069F428B381E050
:1009600090E0AC0102C0440F551F6A95E2F7BA014E
:10097000622B68BB089528B381E090E0AC0102C00F
:10098000440F551F6A95E2F7BA016095622368BB70
:100990000895413069F425B381E090E0AC0102C0D4
:1009A000440F551F6A95E2F7BA01622B65BB0895A3
:1009B00025B381E090E0AC0102C0440F551F6A9559
:1009C000E2F7BA016095622365BB0895413069F48E
:1009D00022B381E090E0AC0102C0440F551F6A953C
:1009E000E2F7BA01622B62BB089522B381E090E086
:1009F000AC0102C0440F551F6A95E2F7BA01609539
:100A0000622362BB089582E46FE00E94ED0382E4FA
:100A100064E041E00E94720482E465E041E00E94EB
:100A2000720482E466E041E00E94720482E467E0BE
:100A300041E00E94720482E460E041E00E94CB0247
:100A400082E461E041E00E94CB0282E462E041E0A6
:100A50000E94CB0282E463E041E00E94CB02089551
:100A60000F931F93CF93DF93CDB7DEB760970FB689
:100A7000F894DEBF0FBECDBFDE011196ECE6F0E0CC
:100A800080E101900D928150E1F700E082E4602F57
:100A900040E00E94CB0210E0612F6C5F82E40E9474
:100AA000A903882389F4E02FF0E0EE0FFF1FEE0F7B
:100AB000FF1FE10FF11DEC0FFD1F118182E4602F7C
:100AC00041E00E94CB0204C01F5F143029F70CC024
:100AD000812F60960FB6F894DEBF0FBECDBFDF91B9
:100AE000CF911F910F91089582E4602F41E00E9401
:100AF000CB020F5F043051F61FEFEACF83E466E0CC
:100B000041E00E94CB028FE99FE00197F1F700C01E
:100B1000000083E466E040E00E94CB028FE99FE0A2
:100B20000197F1F700C000000895CF93C82F482F18
:100B300042954F70417083E460E00E94CB024C2FDD
:100B4000429546954770417083E461E00E94CB0274
:100B50004C2F4295469546954370417083E462E080
:100B60000E94CB024C2F441F4427441F83E463E0C0
:100B70000E94CB0283E464E040E00E94CB020E942A
:100B80007E054C2F417083E460E00E94CB024C2F25
:100B90004695417083E461E00E94CB024C2F46955C
:100BA0004695417083E462E00E94CB02C695C695EB
:100BB000C6954C2F417083E463E00E94CB0283E42E
:100BC00064E040E00E94CB020E947E05CF91089530
:100BD0008FE799EAA3E081509040A040E1F700C080
:100BE000000083E460E041E00E943A0283E461E0B7
:100BF00041E00E943A0283E462E041E00E943A024E
:100C000083E463E041E00E943A0283E464E041E06F
:100C10000E943A0283E465E041E00E943A0283E4E4
:100C200066E041E00E943A0283E465E040E00E9411
:100C3000CB0282E00E949505AFE1BEE41197F1F787
:100C400000C0000088E20E9495058FEC97E00197B4
:100C5000F1F700C000008EE00E949505AFECB7E010
:100C60001197F1F700C0000081E00E9495058FE127
:100C70009EE40197F1F700C0000086E00E94950510
:100C8000AFECB7E01197F1F700C000000895CF93E3
:100C9000C82F482F42954F70417083E460E00E9456
:100CA000CB024C2F429546954770417083E461E03A
:100CB0000E94CB024C2F4295469546954370417059
:100CC00083E462E00E94CB024C2F441F4427441F60
:100CD00083E463E00E94CB0283E464E041E00E948D
:100CE000CB020E947E054C2F417083E460E00E949D
:100CF000CB024C2F4695417083E461E00E94CB0209
:100D00004C2F46954695417083E462E00E94CB02E9
:100D1000C695C695C6954C2F417083E463E00E944A
:100D2000CB0283E464E041E00E94CB020E947E0596
:100D3000CF91089581E00E9495050895833080F455
:100D4000613180F4662381F0882381F0813019F4C9
:100D5000962F91580CC0823051F4962F915407C0B1
:100D600090E805C090E803C090E801C090E8892FA2
:100D70000E9495050895CF93DF93EC018881882325
:100D800031F021960E94470689918823D9F7DF9197
:100D9000CF9108951F93CF93DF93CDB7DEB72897F8
:100DA0000FB6F894DEBF0FBECDBF8A30910518F0A4
:100DB000009729F42DC0805D0E94470629C010E0ED
:100DC0002AE030E0E12FFF27E7FDF09541E050E019
:100DD0004C0F5D1FE40FF51FB9010E9429098083A4
:100DE000862F972F1F5F009769F711168CF411500B
:100DF000E12FFF27E7FDF09581E090E08C0F9D1F2C
:100E0000E80FF91F8081805D0E944706112379F762
:100E100028960FB6F894DEBF0FBECDBFDF91CF91FD
:100E20001F9108955058BB27AA270ED075C166D1CF
:100E300030F06BD120F031F49F3F11F41EF45BC110
:100E40000EF4E095E7FB51C1E92F77D180F3BA1793
:100E5000620773078407950718F071F49EF58FC138
:100E60000EF4E0950B2EBA2FA02D0B01B9019001C5
:100E70000C01CA01A0011124FF27591B99F0593F09
:100E800050F4503E68F11A16F040A22F232F342F51
:100E90004427585FF3CF469537952795A795F0409F
:100EA0005395C9F77EF41F16BA0B620B730B840BB4
:100EB000BAF09150A1F0FF0FBB1F661F771F881F6C
:100EC000C2F70EC0BA0F621F731F841F48F48795C4
:100ED00077956795B795F7959E3F08F0B3CF9395B3
:100EE000880F08F09927EE0F979587950895D9D028
:100EF00008F481E008950CD00FC107D140F0FED076
:100F000030F021F45F3F19F0F0C0511139C1F3C046
:100F100014D198F39923C9F35523B1F3951B550BBD
:100F2000BB27AA2762177307840738F09F5F5F4FBC
:100F3000220F331F441FAA1FA9F333D00E2E3AF0FD
:100F4000E0E830D091505040E695001CCAF729D017
:100F5000FE2F27D0660F771F881FBB1F2617370766
:100F60004807AB07B0E809F0BB0B802DBF01FF2796
:100F700093585F4F2AF09E3F510568F0B6C000C1FC
:100F80005F3FECF3983EDCF3869577956795B795D0
:100F9000F7959F5FC9F7880F911D9695879597F9EB
:100FA0000895E1E0660F771F881FBB1F6217730764
:100FB0008407BA0720F0621B730B840BBA0BEE1F79
:100FC00088F7E095089504D06894B111D9C00895C8
:100FD000BCD088F09F5790F0B92F9927B751A0F057
:100FE000D1F0660F771F881F991F1AF0BA95C9F7BD
:100FF00012C0B13081F0C3D0B1E00895C0C0672FF6
:10100000782F8827B85F39F0B93FCCF3869577956C
:101010006795B395D9F73EF4909580957095619555
:101020007F4F8F4F9F4F0895E89409C097FB3EF480
:1010300090958095709561957F4F8F4F9F4F992325
:10104000A9F0F92F96E9BB279395F69587957795A3
:101050006795B795F111F8CFFAF4BB0F11F460FF63
:101060001BC06F5F7F4F8F4F9F4F16C0882311F0BB
:1010700096E911C0772321F09EE8872F762F05C0CF
:10108000662371F096E8862F70E060E02AF09A956A
:10109000660F771F881FDAF7880F9695879597F95F
:1010A0000895990F0008550FAA0BE0E8FEEF1616F9
:1010B0001706E807F907C0F012161306E407F5074C
:1010C00098F0621B730B840B950B39F40A2661F0C0
:1010D000232B242B252B21F408950A2609F4A14063
:1010E000A6958FEF811D811D089597F99F6780E870
:1010F00070E060E008959FEF80EC089500240A946A
:101100001616170618060906089500240A941216E2
:101110001306140605060895092E0394000C11F415
:10112000882352F0BB0F40F4BF2B11F460FF04C0C2
:101130006F5F7F4F8F4F9F4F089557FD9058440F1B
:10114000551F59F05F3F71F04795880F97FB991F26
:1011500061F09F3F79F087950895121613061406E3
:10116000551FF2CF4695F1DF08C016161706180670
:10117000991FF1CF86957105610508940895E8944B
:10118000BB2766277727CB0197F908950BD0C4CFEB
:10119000B5DF28F0BADF18F0952309F0A6CFABCF62
:1011A0001124EECFCADFA0F3959FD1F3950F50E045
:1011B000551F629FF001729FBB27F00DB11D639F09
:1011C000AA27F00DB11DAA1F649F6627B00DA11DAF
:1011D000661F829F2227B00DA11D621F739FB00D55
:1011E000A11D621F839FA00D611D221F749F3327C5
:1011F000A00D611D231F849F600D211D822F762F5E
:101200006A2F11249F5750408AF0E1F088234AF05A
:10121000EE0FFF1FBB1F661F771F881F91505040A6
:10122000A9F79E3F510570F060CFAACF5F3FECF366
:10123000983EDCF3869577956795B795F795E79592
:101240009F5FC1F7FE2B880F911D9695879597F9A3
:101250000895AA1BBB1B51E107C0AA1FBB1FA617FD
:10126000B70710F0A61BB70B881F991F5A95A9F74F
:1012700080959095BC01CD01089597FB092E072616
:101280000AD077FD04D0E5DF06D000201AF470956F
:1012900061957F4F0895F6F7909581959F4F08953A
:0412A000F894FFCFF0
:1012A40001000A006400E8031027A0863738392FAC
:0C12B4003435362A3132332D41303D2BC9
:00000001FF
