S012000043616C63756C61746F722E7372656308
S11300000C942A000C9447000C9447000C9447006D
S11300100C9447000C9447000C9447000C94470040
S11300200C9447000C9447000C9447000C94470030
S11300300C9447000C9447000C9447000C94470020
S11300400C9447000C9447000C9447000C94470010
S11300500C94470011241FBECFE5D8E0DEBFCDBF0E
S113006010E0A0E6B0E0E6E2FDE002C005900D92EB
S1130070AC37B107D9F710E0ACE7B0E001C01D928E
S1130080AC37B107E1F70E9449000C9491060C9437
S11300900000CF93DF93CDB7DEB728970FB6F8945F
S11300A0DEBF0FBECDBF0E9440050E945B04CC247E
S11300B010E000E0992422243324210166247724CB
S11300C00F2EF0E6AF2EF0E0BF2EF02D882483949F
S11300D030C00E948804082F8F3FD9F3E82E0E9475
S11300E088048F3FE1F7113019F40E94F205192DAD
S11300F08E2D0E949F058C2D992787FD9095E1E018
S1130100F0E0EC0FFD1FE80FF91F2E2D2053208384
S11301102DE2E21669F4CC2051F4E1E0F0E0EC0FBA
S1130120FD1F8E0F9F1FFC01208300E301C00E2DD5
S1130130C3940B3241F00D3231F00A3221F00F3208
S113014011F00D3331F6CA941C1474F55981492DFC
S1130150D301CA9441F45D3209F0C3C0EE24FF24F4
S1130160EA1AFB0A22C0EC2DFF27E7FDF09581E097
S113017090E08C0F9D1FE80FF91F608170E0E42F61
S1130180FF27E7FDF095EE0FFF1FEA0DFB1D8081B1
S11301909181689F9001699F300D789F300D1124E3
S11301A0A20FB31F4F5FD5CF73010D3309F47CC089
S11301B00E948804182F8F3FD9F30E9488048F3F30
S11301C0E1F7812F0E949F05EC2DFF27E7FDF095B5
S11301D021E030E02C0F3D1FE20FF31F812F8053ED
S11301E08083C3941D3321F7CA941C143CF5492D14
S11301F0D301CA94EC2DFF27E7FDF09581E090E050
S11302008C0F9D1FE80FF91F608170E0842F9927E0
S113021087FD9095880F991F8A0D9B1DFC01808195
S11302209181689F9001699F300D789F300D112452
S1130230A20FB31F4F5FCC20E1F601C0D3010D32F2
S1130240A1F00E3228F40A32C9F00B32A1F505C030
S11302500F3201F10D3379F527C0AE0DBF1D6D01CD
S1130260EE24D7FCE094FE2C28C0EA1AFB0A97017E
S11302706901EE24D7FCE094FE2C1FC0EA9E6001C5
S1130280EB9ED00CFA9ED00C1124EE24D7FCE09403
S1130290FE2C13C0C701BD010E947E066B01EE2433
S11302A0D7FCE094FE2C09C0C7016C01EE24D7FCF6
S11302B0E094FE2C02C072016101FF205CF48DE227
S11302C00E949F05F094E094D094C094C11CD11C6A
S11302D0E11CF11CC6010E942206C92C182D092D0F
S11302E028CFEC2DFF27E7FDF09521E030E02C0F1F
S11302F03D1FE20FF31F608170E0E42FFF27E7FD4D
S1130300F095EE0FFF1FEA0DFB1D80819181689F20
S11303109001699F300D789F300D11247901EA0E08
S1130320FB1E43CF843409F471C0853448F482340D
S113033099F1833408F04DC0813409F083C00FC0B3
S1130340823651F1833620F4813609F07BC007C030
S1130350833609F43EC0843609F074C057C0413076
S113036069F42AB381E090E0AC0102C0440F551F48
S11303706A95E2F7BA01622B6ABB08952AB381E059
S113038090E0AC0102C0440F551F6A95E2F7BA0130
S1130390609562236ABB0895413069F427B381E014
S11303A090E0AC0102C0440F551F6A95E2F7BA0110
S11303B0622B67BB089527B381E090E0AC0102C0D3
S11303C0440F551F6A95E2F7BA016095622367BB33
S11303D00895413069F424B381E090E0AC0102C097
S11303E0440F551F6A95E2F7BA01622B64BB089566
S11303F024B381E090E0AC0102C0440F551F6A951C
S1130400E2F7BA016095622364BB0895413069F450
S113041021B381E090E0AC0102C0440F551F6A95FE
S1130420E2F7BA01622B61BB089521B381E090E049
S1130430AC0102C0440F551F6A95E2F7BA016095FA
S1130440622361BB0895843409F471C0853448F48F
S1130450823499F1833408F04DC0813409F083C0AB
S11304600FC0823651F1833620F4813609F07BC007
S113047007C0833609F43EC0843609F074C057C0FF
S1130480413069F42BB381E090E0AC0102C0440F29
S1130490551F6A95E2F7BA01622B6BBB08952BB323
S11304A081E090E0AC0102C0440F551F6A95E2F769
S11304B0BA01609562236BBB0895413069F428B397
S11304C081E090E0AC0102C0440F551F6A95E2F749
S11304D0BA01622B68BB089528B381E090E0AC01B7
S11304E002C0440F551F6A95E2F7BA016095622372
S11304F068BB0895413069F425B381E090E0AC0114
S113050002C0440F551F6A95E2F7BA01622B65BB1E
S1130510089525B381E090E0AC0102C0440F551F5B
S11305206A95E2F7BA016095622365BB089541308C
S113053069F422B381E090E0AC0102C0440F551F7E
S11305406A95E2F7BA01622B62BB089522B381E097
S113055090E0AC0102C0440F551F6A95E2F7BA015E
S11305606095622362BB0895843409F43DC08534E8
S113057040F48234F9F0833450F5813409F040C0FA
S11305800CC08236B9F0833618F48136C9F505C03B
S11305908336E9F08436A1F527C02BB381E090E0DF
S11305A0AC0102C0440F551F6A95E2F7BA016227F5
S11305B06BBB089528B381E090E0AC0102C0440F06
S11305C0551F6A95E2F7BA01622768BB089525B3FF
S11305D081E090E0AC0102C0440F551F6A95E2F738
S11305E0BA01622765BB089522B381E090E0AC01B3
S11305F002C0440F551F6A95E2F7BA01622762BB35
S113060008958434B1F1853438F48234E1F08334CC
S113061028F58134C1F50CC08236A9F0833618F46C
S1130620813689F505C08336C9F0843661F521C069
S113063029B330E0C90102C0959587956A95E2F720
S1130640982F917020C026B330E0C90102C095955F
S113065087956A95E2F7982F917015C023B330E01F
S1130660C90102C0959587956A95E2F7982F917014
S11306700AC020B330E0C90102C0959587956A95F8
S1130680E2F7982F9170892F08958434D9F0853436
S113069038F4823499F0833498F48134A1F40CC092
S11306A0823661F0833618F4813669F405C08336E6
S11306B039F0843641F406C06ABB089567BB0895D7
S11306C064BB089561BB08958434D9F0853438F44B
S11306D0823499F0833498F48134A1F40CC08236C6
S11306E061F0833618F4813669F405C0833639F035
S11306F0843641F406C06BBB089568BB089565BB9E
S1130700089562BB0895843409F1853438F4823441
S1130710A9F08334B8F48134E1F40CC0823671F06A
S1130720833618F48136A9F405C0833659F084362B
S113073081F40CC08BB380958BBB089588B38095EE
S113074088BB089585B3809585BB089582B3809551
S113075082BB08958434D9F0853438F4823499F016
S1130760833498F48134A1F40CC0823661F083366A
S113077018F4813669F405C0833639F0843641F4BF
S113078006C099B305C096B303C093B301C090B338
S1130790892F0895843409F471C0853448F482346F
S11307A099F1833408F04DC0813409F083C00FC03F
S11307B0823651F1833620F4813609F07BC007C0BC
S11307C0833609F43EC0843609F074C057C0413002
S11307D069F42BB381E090E0AC0102C0440F551FD3
S11307E06A95E2F7BA01622B6BBB08952BB381E0E3
S11307F090E0AC0102C0440F551F6A95E2F7BA01BC
S1130800609562236BBB0895413069F428B381E09D
S113081090E0AC0102C0440F551F6A95E2F7BA019B
S1130820622B68BB089528B381E090E0AC0102C05C
S1130830440F551F6A95E2F7BA016095622368BBBD
S11308400895413069F425B381E090E0AC0102C021
S1130850440F551F6A95E2F7BA01622B65BB0895F0
S113086025B381E090E0AC0102C0440F551F6A95A6
S1130870E2F7BA016095622365BB0895413069F4DB
S113088022B381E090E0AC0102C0440F551F6A9589
S1130890E2F7BA01622B62BB089522B381E090E0D3
S11308A0AC0102C0440F551F6A95E2F7BA01609586
S11308B0622362BB089582E46FE00E94450382E4F0
S11308C064E041E00E94CA0382E465E041E00E94E2
S11308D0CA0382E466E041E00E94CA0382E467E05E
S11308E041E00E94CA0382E460E041E00E942302E6
S11308F082E461E041E00E94230282E462E041E09C
S11309000E94230282E463E041E00E9423020895EE
S11309100F931F93CF93DF93CDB7DEB760970FB6D6
S1130920F894DEBF0FBECDBFDE011196ECE6F0E019
S113093080E101900D928150E1F700E082E4602FA4
S113094040E00E94230210E0612F6C5F82E40E9469
S11309500103882389F4E02FF0E0EE0FFF1FEE0F70
S1130960FF1FE10FF11DEC0FFD1F118182E4602FC9
S113097041E00E94230204C01F5F143029F70CC019
S1130980812F60960FB6F894DEBF0FBECDBFDF9106
S1130990CF911F910F91089582E4602F41E00E944E
S11309A023020F5F043051F61FEFEACF83E466E0C1
S11309B041E00E9423028FE99FE00197F1F700C014
S11309C0000083E466E040E00E9423028FE99FE098
S11309D00197F1F700C000000895CF93C82F482F66
S11309E042954F70417083E460E00E9423024C2FD3
S11309F0429546954770417083E461E00E9423026A
S1130A004C2F4295469546954370417083E462E0CD
S1130A100E9423024C2F441F4427441F83E463E0B5
S1130A200E94230283E464E040E00E9423020E94C7
S1130A30D6044C2F417083E460E00E9423024C2FC3
S1130A404695417083E461E00E9423024C2F469551
S1130A504695417083E462E00E942302C695C695E0
S1130A60C6954C2F417083E463E00E94230283E423
S1130A7064E040E00E9423020E94D604CF910895CE
S1130A808FE799EAA3E081509040A040E1F700C0CD
S1130A90000083E460E041E00E94920183E461E0AD
S1130AA041E00E94920183E462E041E00E949201ED
S1130AB083E463E041E00E94920183E464E041E066
S1130AC00E94920183E465E041E00E94920183E484
S1130AD066E041E00E94920183E465E040E00E9408
S1130AE0230282E00E94ED04AFE1BEE41197F1F726
S1130AF000C0000088E20E94ED048FEC97E00197AB
S1130B00F1F700C000008EE00E94ED04AFECB7E006
S1130B101197F1F700C0000081E00E94ED048FE11D
S1130B209EE40197F1F700C0000086E00E94ED0406
S1130B30AFECB7E01197F1F700C000000895CF9330
S1130B40C82F482F42954F70417083E460E00E94A3
S1130B5023024C2F429546954770417083E461E02F
S1130B600E9423024C2F429546954695437041704E
S1130B7083E462E00E9423024C2F441F4427441F55
S1130B8083E463E00E94230283E464E041E00E9482
S1130B9023020E94D6044C2F417083E460E00E943B
S1130BA023024C2F4695417083E461E00E942302A6
S1130BB04C2F46954695417083E462E00E942302DF
S1130BC0C695C695C6954C2F417083E463E00E9498
S1130BD0230283E464E041E00E9423020E94D604DD
S1130BE0CF91089581E00E94ED040895833080F44C
S1130BF0613180F4662381F0882381F0813019F417
S1130C00962F91580CC0823051F4962F915407C0FE
S1130C1090E805C090E803C090E801C090E8892FEF
S1130C200E94ED040895CF93DF93EC01888188231B
S1130C3031F021960E949F0589918823D9F7DF918D
S1130C40CF9108951F93CF93DF93CDB7DEB7289745
S1130C500FB6F894DEBF0FBECDBF8A30910518F0F1
S1130C60009729F42DC0805D0E949F0529C010E0E3
S1130C702AE030E0E12FFF27E7FDF09541E050E066
S1130C804C0F5D1FE40FF51FB9010E946A068083B3
S1130C90862F972F1F5F009769F711168CF4115058
S1130CA0E12FFF27E7FDF09581E090E08C0F9D1F79
S1130CB0E80FF91F8081805D0E949F05112379F759
S1130CC028960FB6F894DEBF0FBECDBFDF91CF914B
S1130CD01F910895AA1BBB1B51E107C0AA1FBB1F8C
S1130CE0A617B70710F0A61BB70B881F991F5A95B4
S1130CF0A9F780959095BC01CD01089597FB092E25
S1130D0007260AD077FD04D0E5DF06D000201AF4C8
S1130D10709561957F4F0895F6F7909581959F4F53
S1090D200895F894FFCFD2
S1130D2601000A006400E8031027A0863738392F2B
S10F0D363435362A3132332D41303D2B48
S9030000FC
